{
  "_format": "hh-sol-artifact-1",
  "contractName": "SingleSwapToken",
  "sourceName": "contracts/SwapToken.sol",
  "abi": [
    {
      "inputs": [
        {
          "internalType": "address",
          "name": "token1",
          "type": "address"
        },
        {
          "internalType": "address",
          "name": "token2",
          "type": "address"
        },
        {
          "internalType": "uint256",
          "name": "amountIn",
          "type": "uint256"
        }
      ],
      "name": "swapExactInputSingle",
      "outputs": [
        {
          "internalType": "uint256",
          "name": "amountOut",
          "type": "uint256"
        }
      ],
      "stateMutability": "nonpayable",
      "type": "function"
    },
    {
      "inputs": [
        {
          "internalType": "address",
          "name": "token1",
          "type": "address"
        },
        {
          "internalType": "address",
          "name": "token2",
          "type": "address"
        },
        {
          "internalType": "uint256",
          "name": "amountOut",
          "type": "uint256"
        },
        {
          "internalType": "uint256",
          "name": "amountInMaximum",
          "type": "uint256"
        }
      ],
      "name": "swapExactOutputSingle",
      "outputs": [
        {
          "internalType": "uint256",
          "name": "amountIn",
          "type": "uint256"
        }
      ],
      "stateMutability": "nonpayable",
      "type": "function"
    },
    {
      "inputs": [],
      "name": "swapRouter",
      "outputs": [
        {
          "internalType": "contract ISwapRouter",
          "name": "",
          "type": "address"
        }
      ],
      "stateMutability": "view",
      "type": "function"
    }
  ],
  "bytecode": "0x608060405234801561001057600080fd5b50610afa806100206000396000f3fe608060405234801561001057600080fd5b50600436106100415760003560e01c8063bc96faa914610046578063c31c9c071461006f578063ceb9201214610084575b600080fd5b6100596100543660046108ec565b610097565b6040516100669190610a60565b60405180910390f35b6100776101f9565b6040516100669190610a43565b61005961009236600461089f565b610211565b60006100a58533308561033c565b6100c48573e592427a0aece92de3edee1f18e0157c0586156484610503565b604080516101008101825273ffffffffffffffffffffffffffffffffffffffff808816825286166020820152610bb88183015233606082015242608082015260a0810185905260c08101849052600060e082015290517fdb3e219800000000000000000000000000000000000000000000000000000000815273e592427a0aece92de3edee1f18e0157c058615649063db3e219890610167908490600401610a51565b602060405180830381600087803b15801561018157600080fd5b505af1158015610195573d6000803e3d6000fd5b505050506040513d601f19601f820116820180604052508101906101b9919061094d565b9150828210156101f0576101e38673e592427a0aece92de3edee1f18e0157c058615646000610503565b6101f086338486036106c1565b50949350505050565b73e592427a0aece92de3edee1f18e0157c0586156481565b600061021f8433308561033c565b61023e8473e592427a0aece92de3edee1f18e0157c0586156484610503565b604080516101008101825273ffffffffffffffffffffffffffffffffffffffff808716825285166020820152610bb88183015233606082015242608082015260a08101849052600060c0820181905260e082015290517f414bf38900000000000000000000000000000000000000000000000000000000815273e592427a0aece92de3edee1f18e0157c058615649063414bf389906102e1908490600401610a51565b602060405180830381600087803b1580156102fb57600080fd5b505af115801561030f573d6000803e3d6000fd5b505050506040513d601f19601f82011682018060405250810190610333919061094d565b95945050505050565b6040805173ffffffffffffffffffffffffffffffffffffffff85811660248301528481166044830152606480830185905283518084039091018152608490920183526020820180517bffffffffffffffffffffffffffffffffffffffffffffffffffffffff167f23b872dd00000000000000000000000000000000000000000000000000000000178152925182516000948594938a169392918291908083835b602083106103fb5780518252601f1990920191602091820191016103dc565b6001836020036101000a0380198251168184511680821785525050505050509050019150506000604051808303816000865af19150503d806000811461045d576040519150601f19603f3d011682016040523d82523d6000602084013e610462565b606091505b5091509150818015610490575080511580610490575080806020019051602081101561048d57600080fd5b50515b6104fb57604080517f08c379a000000000000000000000000000000000000000000000000000000000815260206004820152600360248201527f5354460000000000000000000000000000000000000000000000000000000000604482015290519081900360640190fd5b505050505050565b6040805173ffffffffffffffffffffffffffffffffffffffff8481166024830152604480830185905283518084039091018152606490920183526020820180517bffffffffffffffffffffffffffffffffffffffffffffffffffffffff167f095ea7b3000000000000000000000000000000000000000000000000000000001781529251825160009485949389169392918291908083835b602083106105ba5780518252601f19909201916020918201910161059b565b6001836020036101000a0380198251168184511680821785525050505050509050019150506000604051808303816000865af19150503d806000811461061c576040519150601f19603f3d011682016040523d82523d6000602084013e610621565b606091505b509150915081801561064f57508051158061064f575080806020019051602081101561064c57600080fd5b50515b6106ba57604080517f08c379a000000000000000000000000000000000000000000000000000000000815260206004820152600260248201527f5341000000000000000000000000000000000000000000000000000000000000604482015290519081900360640190fd5b5050505050565b6040805173ffffffffffffffffffffffffffffffffffffffff8481166024830152604480830185905283518084039091018152606490920183526020820180517bffffffffffffffffffffffffffffffffffffffffffffffffffffffff167fa9059cbb000000000000000000000000000000000000000000000000000000001781529251825160009485949389169392918291908083835b602083106107785780518252601f199092019160209182019101610759565b6001836020036101000a0380198251168184511680821785525050505050509050019150506000604051808303816000865af19150503d80600081146107da576040519150601f19603f3d011682016040523d82523d6000602084013e6107df565b606091505b509150915081801561080d57508051158061080d575080806020019051602081101561080a57600080fd5b50515b6106ba57604080517f08c379a000000000000000000000000000000000000000000000000000000000815260206004820152600260248201527f5354000000000000000000000000000000000000000000000000000000000000604482015290519081900360640190fd5b803561088381610aa4565b92915050565b803561088381610abb565b805161088381610abb565b6000806000606084860312156108b457600080fd5b60006108c08686610878565b93505060206108d186828701610878565b92505060406108e286828701610889565b9150509250925092565b6000806000806080858703121561090257600080fd5b600061090e8787610878565b945050602061091f87828801610878565b935050604061093087828801610889565b925050606061094187828801610889565b91505092959194509250565b60006020828403121561095f57600080fd5b600061096b8484610894565b949350505050565b61097c81610a6e565b82525050565b61097c81610a99565b805161010083019061099d8482610973565b5060208201516109b06020850182610973565b5060408201516109c36040850182610a31565b5060608201516109d66060850182610973565b5060808201516109e96080850182610a3a565b5060a08201516109fc60a0850182610a3a565b5060c0820151610a0f60c0850182610a3a565b5060e0820151610a2260e0850182610a28565b50505050565b61097c81610a75565b61097c81610a8e565b61097c81610a96565b602081016108838284610982565b6101008101610883828461098b565b602081016108838284610a3a565b6000610883825b73ffffffffffffffffffffffffffffffffffffffff1690565b62ffffff1690565b90565b600061088382610a6e565b610aad81610a6e565b8114610ab857600080fd5b50565b610aad81610a9656fea2646970667358221220368750f14eda4c28d2d8567c363789643bca714ac4d1861e269934bd5a5303d964736f6c63430007060033",
  "linkReferences": {},
  "deployedLinkReferences": {}
}