{
  "_format": "hh-sol-artifact-1",
  "contractName": "SwapMultiHop",
  "sourceName": "contracts/SwapMultiHop.sol",
  "abi": [
    {
      "inputs": [
        {
          "internalType": "address",
          "name": "token0",
          "type": "address"
        },
        {
          "internalType": "address",
          "name": "token1",
          "type": "address"
        },
        {
          "internalType": "uint256",
          "name": "amountIn",
          "type": "uint256"
        }
      ],
      "name": "swapExactInputMultihop",
      "outputs": [
        {
          "internalType": "uint256",
          "name": "amountOut",
          "type": "uint256"
        }
      ],
      "stateMutability": "nonpayable",
      "type": "function"
    },
    {
      "inputs": [
        {
          "internalType": "address",
          "name": "token0",
          "type": "address"
        },
        {
          "internalType": "address",
          "name": "token1",
          "type": "address"
        },
        {
          "internalType": "uint256",
          "name": "amountOut",
          "type": "uint256"
        },
        {
          "internalType": "uint256",
          "name": "amountInMaximum",
          "type": "uint256"
        }
      ],
      "name": "swapExactOutputMultihop",
      "outputs": [
        {
          "internalType": "uint256",
          "name": "amountIn",
          "type": "uint256"
        }
      ],
      "stateMutability": "nonpayable",
      "type": "function"
    },
    {
      "inputs": [],
      "name": "swapRouter",
      "outputs": [
        {
          "internalType": "contract ISwapRouter",
          "name": "",
          "type": "address"
        }
      ],
      "stateMutability": "view",
      "type": "function"
    }
  ],
  "bytecode": "0x608060405234801561001057600080fd5b50610a12806100206000396000f3fe608060405234801561001057600080fd5b50600436106100415760003560e01c806345956aa014610046578063c31c9c071461006f578063e058f49214610084575b600080fd5b6100596100543660046106f1565b610097565b604051610066919061090b565b60405180910390f35b6100776101cf565b60405161006691906108e5565b61005961009236600461073e565b6101e7565b60006100a584333085610345565b6100c48473e592427a0aece92de3edee1f18e0157c058615648461050c565b6040805160a08101909152600090806100e487610bb88860c085016108ae565b60405160208183030381529060405281526020013373ffffffffffffffffffffffffffffffffffffffff1681526020014281526020018481526020016000815250905073e592427a0aece92de3edee1f18e0157c0586156473ffffffffffffffffffffffffffffffffffffffff1663c04b8d59826040518263ffffffff1660e01b815260040161017491906108f3565b602060405180830381600087803b15801561018e57600080fd5b505af11580156101a2573d6000803e3d6000fd5b505050506040513d601f19601f820116820180604052508101906101c6919061079f565b95945050505050565b73e592427a0aece92de3edee1f18e0157c0586156481565b60006101f585333085610345565b6102148573e592427a0aece92de3edee1f18e0157c058615648461050c565b6040805160a081019091526000908061023487610bb88a60c085016108ae565b60408051601f198184030181529181529082523360208301524282820152606082018790526080909101859052517ff28c049800000000000000000000000000000000000000000000000000000000815290915073e592427a0aece92de3edee1f18e0157c058615649063f28c0498906102b29084906004016108f3565b602060405180830381600087803b1580156102cc57600080fd5b505af11580156102e0573d6000803e3d6000fd5b505050506040513d601f19601f82011682018060405250810190610304919061079f565b91508282101561033c5761032e8673e592427a0aece92de3edee1f18e0157c05861564600061050c565b61033c863033858703610345565b50949350505050565b6040805173ffffffffffffffffffffffffffffffffffffffff85811660248301528481166044830152606480830185905283518084039091018152608490920183526020820180517bffffffffffffffffffffffffffffffffffffffffffffffffffffffff167f23b872dd00000000000000000000000000000000000000000000000000000000178152925182516000948594938a169392918291908083835b602083106104045780518252601f1990920191602091820191016103e5565b6001836020036101000a0380198251168184511680821785525050505050509050019150506000604051808303816000865af19150503d8060008114610466576040519150601f19603f3d011682016040523d82523d6000602084013e61046b565b606091505b5091509150818015610499575080511580610499575080806020019051602081101561049657600080fd5b50515b61050457604080517f08c379a000000000000000000000000000000000000000000000000000000000815260206004820152600360248201527f5354460000000000000000000000000000000000000000000000000000000000604482015290519081900360640190fd5b505050505050565b6040805173ffffffffffffffffffffffffffffffffffffffff8481166024830152604480830185905283518084039091018152606490920183526020820180517bffffffffffffffffffffffffffffffffffffffffffffffffffffffff167f095ea7b3000000000000000000000000000000000000000000000000000000001781529251825160009485949389169392918291908083835b602083106105c35780518252601f1990920191602091820191016105a4565b6001836020036101000a0380198251168184511680821785525050505050509050019150506000604051808303816000865af19150503d8060008114610625576040519150601f19603f3d011682016040523d82523d6000602084013e61062a565b606091505b5091509150818015610658575080511580610658575080806020019051602081101561065557600080fd5b50515b6106c357604080517f08c379a000000000000000000000000000000000000000000000000000000000815260206004820152600260248201527f5341000000000000000000000000000000000000000000000000000000000000604482015290519081900360640190fd5b5050505050565b80356106d5816109bc565b92915050565b80356106d5816109d3565b80516106d5816109d3565b60008060006060848603121561070657600080fd5b600061071286866106ca565b9350506020610723868287016106ca565b9250506040610734868287016106db565b9150509250925092565b6000806000806080858703121561075457600080fd5b600061076087876106ca565b9450506020610771878288016106ca565b9350506040610782878288016106db565b9250506060610793878288016106db565b91505092959194509250565b6000602082840312156107b157600080fd5b60006107bd84846106e6565b949350505050565b6107ce81610926565b82525050565b6107ce6107e082610926565b61098a565b60006107f082610919565b6107fa818561091d565b935061080a81856020860161095a565b610813816109a6565b9093019392505050565b6107ce8161094f565b805160a08084526000919084019061083e82826107e5565b915050602083015161085360208601826107c5565b50604083015161086660408601826108a5565b50606083015161087960608601826108a5565b50608083015161088c60808601826108a5565b509392505050565b6107ce6108a082610944565b61099b565b6107ce8161094c565b60006108ba82866107d4565b6014820191506108ca8285610894565b6003820191506108da82846107d4565b506014019392505050565b602081016106d5828461081d565b602080825281016109048184610826565b9392505050565b602081016106d582846108a5565b5190565b90815260200190565b600073ffffffffffffffffffffffffffffffffffffffff82166106d5565b62ffffff1690565b90565b60006106d582610926565b60005b8381101561097557818101518382015260200161095d565b83811115610984576000848401525b50505050565b60006106d58260006106d5826109b6565b60006106d5826109b0565b601f01601f191690565b60e81b90565b60601b90565b6109c581610926565b81146109d057600080fd5b50565b6109c58161094c56fea2646970667358221220c83ad653a79d9f2b691bc41f1e4e45d0655a8f23c516ce636049207803181e6064736f6c63430007060033",
  "linkReferences": {},
  "deployedLinkReferences": {}
}